S015000070726F6A35617474656D7074322E73726563EE
S11300000C942E000C944B000C9436050C944E0664
S11300100C944B000C944B000C944B000C944B0030
S11300200C944B000C944B000C944B000C944B0020
S11300300C944B000C944B000C944B000C944B0010
S11300400C944B000C944B000C944B000C944B0000
S11300500C944B000C944B000C944B0011241FBEC9
S1130060CFEFD4E0DEBFCDBF11E0A0E0B1E0E8EE19
S1130070F3E102C005900D92A837B107D9F721E04A
S1130080A8E7B1E001C01D92A639B207E1F70E94CA
S113009014050C94F2090C940000EEE7F0E0808162
S11300A08160808382E480937C0080E880937A007E
S11300B00895EAE7F0E08081806480830895EAE7A8
S11300C0F0E080818061808308950E945F000E9437
S11300D05900EAE7F0E0808184FFFDCF8091780049
S11300E0909179000895249A84B5886084BD84B57C
S11300F0806484BD84B5846084BD84B584BD84B5C6
S113010084BD84B5806284BD84B584BD16BC089565
S113011084B18F7384B96B9885B1806C85B9739AF7
S113012008950E94DB068CE691E00E94F006089593
S11301307894EE9AEF9AECE6F0E080818064808314
S1130140808180688083EBE6F0E080818860808332
S113015008958F929F92AF92BF92DF92EF92FF9297
S11301600F931F93CF93DF9300D000D000D0CDB76F
S1130170DEB7F8940F2EFCE7EF2EF1E0FF2EF02D02
S11301801FE00F2EF0E78F2EF1E09F2EF02DCE0111
S113019001965C0117BD9FEBE7E2F9E09150E04066
S11301A0F040E1F700C000000E946500D82E092F3E
S11301B09F938F939F928F92BF92AF920E94080752
S11301C0C5010E94F006F701D0820183F2E0EF0E30
S11301D0F11C195F0F900F900F900F900F900F90DC
S11301E01E34C1F68DE487BD2FEB87E299E02150E0
S11301F080409040E1F700C000000E946500082F95
S1130200192F9F938F9380E791E09F938F93FE0123
S113021031967F01FF93EF930E940807C7010E9464
S1130220F006ECE7F1E0028B138B78940F900F90BB
S11302300F900F900F900F9026960FB6F894DEBF94
S11302400FBECDBFDF91CF911F910F91FF90EF9023
S1130250DF90BF90AF909F908F900895ECE7F1E00E
S113026020E030E060ED77E041915191641775072B
S11302701CF0BA01822F932F2F5F3F4F2A30310594
S113028099F70895ECE7F1E020E030E060E070E0F9
S113029041915191461757071CF0BA01822F932FB1
S11302A02F5F3F4F2A30310599F708955F926F927F
S11302B07F928F929F92AF92BF92CF92DF92EF92F2
S11302C0FF920F931F93CF93DF9300D000D000D001
S11302D0CDB7DEB77C01009709F093C28FE087BDEC
S11302E02FE332E48FE0215030408040E1F700C03A
S11302F000000E946500882E992E9F938F930F2EE5
S1130300F0E7AF2EF1E0BF2EF02DBF92AF92FE01C9
S113031031966F01FF93EF930E940807C6010E9474
S1130320F00600E911E0F8018282938283E187BD3F
S1130330FFE322E43FE0F15020403040E1F700C009
S113034000000E946500882E992E9F938F93BF9280
S1130350AF92DF92CF920E940807C6010E94F00676
S1130360F801848295820FB6F894DEBF0FBECDBF2C
S113037003E010E0A5C017BD3FE382E49FE03150E5
S113038080409040E1F700C000000E946500782E94
S1130390092F9F938F939F928F92BF92AF920E9447
S11303A00807C5010E94F006F60170820183F2E09D
S11303B0CF0ED11C1C5F0F900F900F900F900F90D9
S11303C00F901E31C1F603E010E052C122E0E216A4
S11303D0F10409F02AC20F2EF0E9CF2EF1E0DF2E4E
S11303E0F02D19E10F2EF0E78F2EF1E09F2EF02D66
S11303F0CE0101965C0117BD9FE3E2E4FFE091505A
S1130400E040F040E1F700C000000E946500782E53
S1130410092F9F938F939F928F92BF92AF920E94C6
S11304200807C5010E94F006F60170820183F2E01C
S1130430CF0ED11C1C5F0F900F900F900F900F9058
S11304400F901532C1F603E010E0C8C00F2EF0E99A
S1130450CF2EF1E0DF2EF02D10E20F2EF0E78F2EDD
S1130460F1E09F2EF02D9E012F5F3F4F590117BDE4
S11304703FE382E49FE0315080409040E1F700C0C8
S113048000000E946500782E092F9F938F939F92FE
S11304908F92BF92AF920E940807C5010E94F00696
S11304A0F60170820183F2E0CF0ED11C1C5F0F9025
S11304B00F900F900F900F900F901C32C1F645C013
S11304C024E0E216F10409F0B8C1C801880F991FAD
S11304D0FC01E057FE4F6F010F2EF6E27F2EF02D48
S11304E00F2EF0E78F2EF1E09F2EF02D9E012F5F4F
S11304F03F4F590177BC3FE382E49FE03150804095
S11305009040E1F700C000000E946500582E692E5B
S11305109F938F939F928F92BF92AF920E940807EE
S1130520C5010E94F006F60150826182F2E0CF0E0E
S1130530D11C24E0720E0F900F900F900F900F902B
S11305400F9032E37312D6CF47C085E0E816F1046A
S113055009F079C103E010E0C801880F991FFC017C
S1130560E057FE4F6F010F2EFDE27F2EF02D0F2E70
S1130570F0E78F2EF1E09F2EF02D9E012F5F3F4F6D
S1130580590177BC3FE382E49FE0315080409040C2
S1130590E1F700C000000E946500582E692E9F9369
S11305A08F939F928F92BF92AF920E940807C501CA
S11305B00E94F006F60150826182F2E0CF0ED11C57
S11305C024E0720E0F900F900F900F900F900F90E9
S11305D039E37312D6CF4AC00D5F1F4F86E0E81689
S11305E0F10409F038C102C003E010E0C801880F2B
S11305F0991FFC01E057FE4F6F010F2EF4E37F2E8D
S1130600F02D0F2EF0E78F2EF1E09F2EF02D9E019E
S11306102F5F3F4F590177BC3FE382E49FE03150A5
S113062080409040E1F700C000000E946500582E11
S1130630692E9F938F939F928F92BF92AF920E9445
S11306400807C5010E94F006F60150826182F2E0BB
S1130650CF0ED11C24E0720E0F900F900F900F90CC
S11306600F900F9030E47312D6CF47C00D5F1F4F29
S113067087E0E816F10409F0F4C0C801880F991F57
S1130680FC01E057FE4F6F010F2EFBE37F2EF02D90
S11306900F2EF0E78F2EF1E09F2EF02D9E012F5F9D
S11306A03F4F590177BC3FE382E49FE031508040E3
S11306B09040E1F700C000000E946500582E692EAA
S11306C09F938F939F928F92BF92AF920E9408073D
S11306D0C5010E94F006F60150826182F2E0CF0E5D
S11306E0D11C24E0720E0F900F900F900F900F907A
S11306F00F9037E47312D6CF42C00D5F1F4F88E0CE
S1130700E816F10409F0B3C0000F111F00571E4F83
S11307100F2EF2E4FF2EF02D0F2EF0E78F2EF1E0D6
S11307209F2EF02DFE0131965F01F7BCFFE322E41A
S11307303FE0F15020403040E1F700C000000E944B
S11307406500D82EE92E9F938F939F928F92BF922C
S1130750AF920E940807C5010E94F006F801D082FA
S1130760E1820E5F1F4FF4E0FF0E0F900F900F9089
S11307700F900F900F902EE4F212D7CF7DC00D5F33
S11307801F4F39E0E316F10409F076C0000F111F82
S113079000571E4F0F2EF9E4FF2EF02D0F2EF0E719
S11307A08F2EF1E09F2EF02DCE0101965C01F7BC57
S11307B09FE3E2E4FFE09150E040F040E1F700C045
S11307C000000E946500D82EE92E9F938F939F927C
S11307D08F92BF92AF920E940807C5010E94F00653
S11307E0F801D082E1820E5F1F4FF4E0FF0E0F90FC
S11307F00F900F900F900F900F9021E5F212D7CF2A
S11308003BC0019709F0E2CD0F2EF0E9CF2EF1E0C5
S1130810DF2EF02D12E10F2EF0E78F2EF1E09F2E48
S1130820F02DCE0101965C01A6CD93E0E916F1040A
S113083009F40CCE00E010E043CEE5E0EE16F1043E
S113084009F48ACECBCEF6E0EF16F10409F4CCCE4F
S113085003E010E00DCF27E0E216F10409F04FCFDA
S11308600CCF38E0E316F10409F08BCF4DCF89E0CB
S1130870E816F10409F48ACF80E090E026960FB6DA
S1130880F894DEBF0FBECDBFDF91CF911F910F91C2
S1130890FF90EF90DF90CF90BF90AF909F908F909C
S11308A07F906F905F9008950097A9F580919201D1
S11308B090919301883E23E092071CF441E050E0BC
S11308C002C088EE93E0209194013091950128179D
S11308D039070CF049C042E050E046C0099709F0DE
S11308E043C005C0099709F03FC028EE33E080916A
S11308F0900190919101821793071CF49C0140E0B0
S113090050E080919201909193018217930764F5CE
S113091041E050E029C09C012150310928303105C3
S113092008F72091900130919101283E63E0360749
S11309301CF440E050E002C028EE33E060919201E4
S113094070919301621773071CF49B0141E050E01E
S11309506091940170919501621773070CF0BECFFA
S11309609B0142E050E0BACFCA010895009799F57F
S11309708091920190919301181619061CF441E09C
S113098050E002C080E090E0209194013091950104
S1130990821793070CF046C042E050E043C0099729
S11309A009F040C004C00997E9F520E030E08091E7
S11309B0900190919101281739071CF49C0140E0A3
S11309C050E080919201909193012817390754F5D2
S11309D041E050E027C09C01215031092830310505
S11309E010F72091900130919101121613061CF416
S11309F040E050E002C020E030E06091920170914C
S1130A009301261737071CF49B0141E050E06091E5
S1130A10940170919501261737070CF69B0142E06B
S1130A2050E0BDCFCA0108950E9473008FE087BDD6
S1130A300E9488000E9491000E9498000E944D002C
S1130A4010927B0110927A01FFCF6130710531F071
S1130A506230710531F42AE030E005C020E030E076
S1130A6002C026EF3FEF820F931F08951F920F924B
S1130A700FB60F921124AF92BF92CF92DF92EF92F2
S1130A80FF920F931F932F933F934F935F936F9313
S1130A907F938F939F93AF93BF93EF93FF93CF93E2
S1130AA0DF93CDB7DEB72C97DEBFCDBF8091780141
S1130AB0909179010196909379018093780180FD5A
S1130AC0CCC00E94A90080917A0190917B01892B6E
S1130AD009F05EC00E942E016C0184E18C9D7001BE
S1130AE08D9DF00C1124FF92EF9200E711E01F930B
S1130AF00F93CE0101965C019F938F930E94080788
S1130B000E94DB069FE322E48FE091502040804066
S1130B10E1F700C00000C5010E94F0069FEB2CE540
S1130B2085E1915020408040E1F700C00000C601FB
S1130B300E945601C6010E945404BC01C7010E94D0
S1130B4025059F938F931F930F938E01095F1F4F6A
S1130B501F930F930E9408070E94DB069FE322E481
S1130B608FE0915020408040E1F700C00000C801B0
S1130B700E94F0069FEB2CE585E1915020408040D7
S1130B80E1F700C000000FB6F894DEBF0FBECDBF82
S1130B9080917A0190917B01019709F05EC00E94D7
S1130BA042016C0184E18C9D70018D9DF00C112437
S1130BB0FF92EF9200E711E01F930F93CE0101968D
S1130BC05C019F938F930E9408070E94DB069FE3BA
S1130BD022E48FE0915020408040E1F700C0000003
S1130BE0C5010E94F0069FEB2CE585E19150204061
S1130BF08040E1F700C00000C6010E945601C60112
S1130C000E94B604BC01C7010E9425059F938F93DF
S1130C101F930F938E01095F1F4F1F930F930E9421
S1130C2008070E94DB069FE322E48FE091502040F6
S1130C308040E1F700C00000C8010E94F0069FEB6D
S1130C402CE585E1915020408040E1F700C0000090
S1130C500FB6F894DEBF0FBECDBF2C960FB6F89436
S1130C60DEBF0FBECDBFDF91CF91FF91EF91BF915A
S1130C70AF919F918F917F916F915F914F913F9130
S1130C802F911F910F91FF90EF90DF90CF90BF9025
S1130C90AF900F900FBE0F901F9018951F920F9258
S1130CA00FB60F9211242F933F934F935F936F933B
S1130CB07F938F939F93AF93BF93EF93FF93809111
S1130CC0780190917901019690937901809378014C
S1130CD080FD19C080917A0190917B01892B59F490
S1130CE081E090E090937B0180937A0183E791E027
S1130CF00E94F00608C010927B0110927A018CE6E3
S1130D0091E00E94F006FF91EF91BF91AF919F9106
S1130D108F917F916F915F914F913F912F910F90A0
S1130D200FBE0F901F9018956630B0F596ED980F92
S1130D30913568F4813608F08F7D8A52E82FF0E00F
S1130D40EE0FFF1FE050FF4F2081318102C020E0F1
S1130D5030E0A62FA17060FD02C070EF01C07FE0FB
S1130D606695E62FF0E0E451FF4FAF014C5E5F4F14
S1130D70822F8F70329522952F7023273F7023275F
S1130D80AA2311F08295807F90819723892B8083F9
S1130D9035964E175F0761F7089591E0811101C000
S1130DA090E0892F8195ECEEF0E08193E11591E0DC
S1130DB0F907D9F7089580E00E94CD06E7EEF0E048
S1130DC080818F60808387EB8093E50087E0809348
S1130DD0E60080EC8093E4008081806E8083089537
S1130DE00F931F93CF93FC018081882369F08F01B7
S1130DF00F5F1F4FC0E06C2F0E949406F801819191
S1130E008F01CF5F8111F7CFCF911F910F9108957B
S1130E10AEE0B0E0EEE0F7E00C94C9090D891E895C
S1130E2086E08C831A8309838FEF9FE79E838D83EB
S1130E30AE01475E5F4F6F89788DCE0101960E94A7
S1130E402A07EF81F885E00FF11F10822E96E4E067
S1130E500C94E509ABE0B0E0E0E3F7E00C94BB09E7
S1130E606C017B018A01FC0117821682838181FF58
S1130E70CCC1CE0101963C01F6019381F70193FDAB
S1130E80859193FF81917F01882309F4BAC185324A
S1130E9039F493FD859193FF81917F01853229F483
S1130EA0B60190E00E942109E7CF912C212C312C2E
S1130EB0FFE1F315D8F08B3279F038F4803279F011
S1130EC08332A1F4232D20611DC08D3261F0803363
S1130ED069F4232D216016C0832D8260382EE32D02
S1130EE0E4603E2E2AC0F32DF8601DC037FC2DC0EF
S1130EF020ED280F2A3040F08E32B9F436FC81C13F
S1130F00232D2064322E19C036FE06C08AE0989E36
S1130F10200D1124922E11C0EAE02E9E200D1124E2
S1130F20222EF32DF0623F2E08C08C3621F4832D3F
S1130F308068382E02C0883641F4F70193FD85910C
S1130F4093FF81917F018111B3CF982F9F7D955499
S1130F50933028F40C5F1F4F9FE399830DC08336B1
S1130F6031F0833771F0833509F059C021C0F8019D
S1130F70808189830E5F1F4F88248394912C5301B1
S1130F8013C02801F2E04F0E511CF801A080B1807B
S1130F9036FE03C0692D70E002C06FEF7FEFC5011C
S1130FA00E9416094C018201F32DFF773F2E16C0D3
S1130FB0280122E0420E511CF801A080B18036FEC7
S1130FC003C0692D70E002C06FEF7FEFC5010E947E
S1130FD00B094C01F32DF0683F2E820133FC1BC03A
S1130FE0822D90E088169906B0F4B60180E290E074
S1130FF00E9421092A94F4CFF50137FC859137FE2C
S113100081915F01B60190E00E94210921102A9488
S113101021E0821A91088114910471F7E8C08436A2
S113102011F0893641F5F80137FE07C060817181FE
S1131030828193810C5F1F4F08C060817181072EEC
S1131040000C880B990B0E5F1F4FF32DFF763F2E7C
S113105097FF09C090958095709561957F4F8F4F4C
S11310609F4FF0683F2E2AE030E0A3010E945D0903
S1131070882E861845C0853731F4232D2F7EB22E55
S11310802AE030E025C0932D997FB92E8F36C1F028
S113109018F4883579F0B5C0803719F0883721F015
S11310A0B0C0E92FE061BE2EB4FE0DC0FB2DF4608C
S11310B0BF2E09C034FE0AC0292F2660B22E06C0F6
S11310C028E030E005C020E130E002C020E132E059
S11310D0F801B7FE07C060817181828193810C5F42
S11310E01F4F06C06081718180E090E00E5F1F4F4A
S11310F0A3010E945D09882E8618FB2DFF773F2EE1
S113110036FE0DC0232D2E7FA22E891458F434FEF2
S11311100BC032FC09C0832D8E7EA82E05C0B82CCE
S1131120A32C03C0B82C01C0B92CA4FE0FC0FE012F
S1131130E80DF11D8081803321F49A2D997EA92E2A
S113114009C0A2FE06C0B394B39404C08A2D867865
S113115009F0B394A3FC11C0A0FE06C0B21488F435
S1131160280C922C9B180EC0B21460F4B60180E2D5
S113117090E00E942109B394F7CFB21418F42B180D
S113118002C0982C212CA4FE10C0B60180E390E08C
S11311900E942109A2FE17C0A1FC03C088E790E0C9
S11311A002C088E590E0B6010CC08A2D867859F01B
S11311B0A1FE02C08BE201C080E2A7FC8DE2B60171
S11311C090E00E942109891438F4B60180E390E08C
S11311D00E9421099A94F7CF8A94F301E80DF11D36
S11311E08081B60190E00E9421098110F5CF222070
S11311F009F442CEB60180E290E00E9421092A94CB
S1131200F6CFF6018681978102C08FEF9FEF2B9670
S1131210E2E10C94D709FC01059061507040011083
S1131220D8F7809590958E0F9F1F0895FC0161500B
S1131230704001900110D8F7809590958E0F9F1FF4
S113124008950F931F93CF93DF93FB01238121FD17
S113125003C08FEF9FEF2CC022FF16C04681578139
S1131260248135814217530744F4A081B1819D0143
S11312702F5F3F4F318320838C93268137812F5FEB
S11312803F4F3783268314C08B01EC01FB0100849C
S1131290F185E02D0995892BE1F6D80116968D91FB
S11312A09C911797019617969C938E931697CE014F
S11312B0DF91CF911F910F910895FA01AA27283049
S11312C051F1203181F1E8946F936E7F6E5F7F4F0F
S11312D08F4F9F4FAF4FB1E03ED0B4E03CD0670F8B
S11312E0781F891F9A1FA11D680F791F8A1F911DDE
S11312F0A11D6A0F711D811D911DA11D20D009F42E
S113130068943F912AE0269F11243019305D31936F
S1131310DEF6CF010895462F4770405D4193B3E058
S11313200FD0C9F7F6CF462F4F70405D4A3318F0FF
S1131330495D31FD4052419302D0A9F7EACFB4E0B0
S1131340A6959795879577956795BA95C9F7009768
S11313506105710508959B01AC010A2E0694579509
S1131360479537952795BA95C9F7620F731F841F60
S1131370951FA01D08952F923F924F925F926F92F6
S11313807F928F929F92AF92BF92CF92DF92EF9211
S1131390FF920F931F93CF93DF93CDB7DEB7CA1B92
S11313A0DB0B0FB6F894DEBF0FBECDBF09942A88BD
S11313B0398848885F846E847D848C849B84AA8465
S11313C0B984C884DF80EE80FD800C811B81AA81F2
S11313D0B981CE0FD11D0FB6F894DEBF0FBECDBFBD
S10B13E0ED010895F894FFCF1C
S11313E8510A802A0000000A510A000059551801C0
S11313F8111E111B500B411B411F1101511F511B81
S11314080000000000000000000000000000510F70
S1131418913941149131411E410E411D500F8020D4
S1131428101548864014780570855115510E51954C
S1131438518E219081205015484450C528C0282039
S113144809500000000000000000000046544C0051
S10B145825640041544C00001E
S9030000FC
